:020000040000FA
:04000000F0EF00F02D
:020004000000FA
:0400080013EF00F002
:08001000395E79716F777C58AD
:080018001100F09004721100C8
:10002000F09204761100F0B00DEF00F0F0B210EF96
:1000300000F01100D09EF19EF19AF086F088F28EC9
:10004000F28C1200240EAC6E910EAB6E480EB86EA0
:10005000190EAF6EB06A1200420ED36E1200980EE7
:10006000D56E1200030EC26E0E0EC16E890EC06EEA
:100070009280946A948C948E956A1200C4CF01F099
:10008000C3CF02F01200100EF66EF76AF86A030E84
:10009000F624F5CF8CFF1200000E066E7D0E056E65
:1000A0001200000E066EAF0E056E1200000E066EF8
:1000B000E10E056E1200010E066E130E056E1200A3
:1000C000010E066E450E056E1200010E066E770ECD
:1000D000056E1200010E066EA90E056E1200010ECD
:1000E000066EDB0E056E1200D6CF02F0D7CF01F000
:1000F00006C0E8FF016274EF00F005C0E8FF02648B
:1001000074EF00F01200F29ED76AD66A8B8074EC0E
:1001100000F08B90D6CF02F0D7CF01F0130E016420
:1001200089EF00F0880E026489EF00F004A6F28ED9
:100130001200F29ED76AD66A8B82D6CF02F0D7CF52
:1001400001F006C0E8FF01629DEF00F005C0E8FF86
:1001500002649DEF00F08B92D6CF02F0D7CF01F072
:10016000130E0164ABEF00F0880E0264ABEF00F0F9
:1001700004A6F28E1200010E01601200640E0260ED
:100180001200000E035CD8A403060480056A066A08
:100190008AEC01F083EC00F01200020E0164120000
:1001A000840E02641200070E035CD8A4032A0480A4
:1001B000056A066A8AEC01F083EC00F01200010E79
:1001C0000162E8EF00F0C80E02641200EEEF00F0EA
:1001D000020E01621200320E026012000490120040
:1001E0002CEC00F032EC00F02FEC00F01AEC00F0F8
:1001F00022EC00F0FCEF00F004A636EC01F004B6AF
:1002000004EC01F0FCEF00F0F28E8B968B948B885F
:1002100004A6FCEF00F09EAA08EF01F0AECF02F0BA
:10022000ABB276EC01F0500E025CD8A404EF01F002
:100230004B0EAD6EACA21AEF01F0F29E9EAA1EEF1D
:1002400001F0AECF02F0530E025CD8B404EF01F01F
:10025000ABB276EC01F0056A066AB3EC01F083EC10
:1002600000F079EC01F01EEF01F012008B868B9408
:100270008B9804A240EC01F004B25CEC01F0120097
:100280008B9A81B04CEF01F004B44DEF01F079ECA2
:1002900001F004844DEF01F00494C282C2B24EEF2B
:1002A00001F03EEC00F0DFEC00F004A0BBEC00F04D
:1002B00004A0CDEC00F012008B8A04A236EF01F00E
:1002C00004A6FCEF00F09EAA5DEF01F0AECF02F0B5
:1002D000ABB276EC01F0056A066AB3EC01F08AEC89
:1002E00001F083EC00F079EC01F01200AB9804808F
:1002F0001200F29E43EC00F0010E066EDB0E056E5E
:1003000099EC00F0000E066E7D0E056E99EC00F083
:10031000F28E1200000E035CD8B44CEC00F0010E1B
:10032000035CD8B451EC00F0020E035CD8B456EC78
:1003300000F0030E035CD8B45BEC00F0040E035C29
:10034000D8B460EC00F0050E035CD8B465EC00F0A6
:10035000060E035CD8B46AEC00F0070E035CD8B458
:100360006FEC00F01200430E025CD8B4000E036E76
:10037000440E025CD8B4010E036E450E025CD8B484
:10038000020E036E460E025CD8B4030E036E470ED7
:10039000025CD8B4040E036E410E025CD8B4050EA4
:1003A000036E420E025CD8B4060E036E630E025C4E
:0803B000D8B4070E036E120021
:020000040030CA
:0100010008F6
:010003001EDE
:010005008179
:00000001FF
