:020000040000FA
:04000000A3EF01F079
:020004000000FA
:04000800BBEF00F05A
:08001000395E79716F777C58AD
:0800180011000A6AFA0E0A5CED
:10002000D8B412000A2A00000000000000000000FE
:100030000000000000000EEF00F0F0900DEC00F06A
:1000400081B2110004A604721100F0920DEC00F0D0
:1000500081B4110004B811000476110004B6120036
:1000600004B836EF00F056EC00F012006CEC02F031
:100070001200010EE06E00EE40F0EAB21200EF6AEC
:10008000E92AD8B2EA2A3DEF00F0500EAD6EACA2DC
:1000900047EF00F00DEC00F09EAA12004B0EAE5C94
:1000A000D8B4048CABB24DEC02F0120039EC00F085
:1000B00045EC00F004888B848B968B9800EE40F022
:1000C00010EE80F020EEC0F0E1EC00F0D76AD66AC6
:1000D000120081B812000DEC00F081A812002EEC85
:1000E00000F081A871EF00F0AFEF01F0F2920DEC9B
:1000F00000F081B0110004B81100F29E010EE06E14
:1001000000EE40F010EE80F020EEC0F0EFCF03F0F4
:10011000E7CF07F0DFCF08F0E92AE12AD92A080E55
:100120000360B6EF00F0D76AD66AE1EC00F0D7CFF3
:1001300001F0D6CF02F008500160A1EF00F097EF78
:1001400000F00164A6EF00F0ACEF00F00750026091
:10015000ACEF00F097EF00F0DEEC00F0AFEC02F057
:100160000FEC01F050EC02F086EF00F0049EDEECA4
:1001700000F0F28E1100F2B276EF00F0F0B01DEF59
:1001800000F0F0B225EF00F01100D09EF19EF19C3E
:10019000F19AF198F184F288F086F088F28EF28C70
:1001A0001200240EAC6E910EAB6E480EB86E190E96
:1001B000AF6EB06A1200420ED36E1200980ED56E6A
:1001C0001200970ED56E1200030EC26E0E0EC16E97
:1001D000890EC06E926A9280946A948C948E956A0D
:1001E0001200C4CF01F0C3CF02F0120003C0E8FF39
:1001F000100FF66EF76AF86A0800F5CF8CFF120050
:10020000D6CF02F0D7CF01F006C0E8FF016200EFC1
:1002100001F005C0E8FF026400EF01F01200F29E59
:1002200004A817EF01F0D7CF08F0D6CF07F0D76AB0
:10023000D66A8B8000EC01F08B90D6CF02F0D7CF3E
:1002400001F0130E01641CEF01F0880E02641CEF34
:1002500001F004A6F28E04A81200E1EC00F0D66AC8
:10026000D76A0750D66E140ED626D8B2082A085080
:10027000D76E1200F29ED76AD66A8B82D6CF02F072
:10028000D7CF01F006C0E8FF01623EEF01F005C0E4
:10029000E8FF02643EEF01F08B92D6CF02F0D7CF99
:1002A00001F0130E01644CEF01F0880E02644CEF74
:1002B00001F004A6F28E1200010E01601200640E1D
:1002C00002601200000E035CD8A403060480056AD5
:1002D000066AAFEC02F00FEC01F01200020E0164AE
:1002E0001200840E02641200070E035CD8A4032AD5
:1002F0000480056A066AAFEC02F00FEC01F0120010
:10030000010E016289EF01F0C80E026412008FEF46
:1003100001F0020E01621200320E0260120004901F
:100320001200D7CF01F0D6CF02F0EA0E01609AEFAB
:1003300001F0120001649FEF01F0048A1200600EC8
:100340000260048A1200DBEC00F0E4EC00F0DEEC6A
:1003500000F0C5EC00F0D1EC00F0AFEF01F004A626
:10036000ECEC01F004B6B7EC01F0AFEF01F0F28E67
:100370008B968B948B8804BEAFEC01F004A6AFEF94
:1003800001F09EAABBEF01F0AECF02F0ABB24DEC94
:1003900002F0500E025CD8A4B7EF01F0F29E4B0EB3
:1003A000AD6EACA2D1EF01F09EAAD4EF01F0AECFBA
:1003B00002F0530E025CD8B4B7EF01F0ABB24DECD3
:1003C00002F0056A066AD8EC02F00FEC01F050EC7E
:1003D00002F0D4EF01F0120069EC00F004B8F6EF7F
:1003E00001F08B948B868B98F9EF01F08B848B96C0
:1003F0008B9804A200EC02F004B227EC02F0120089
:100400008B9A04B891EC01F004BA6CEC02F081B65E
:1004100017EF02F00DEC00F081B617EF02F004B414
:1004200018EF02F050EC02F0048418EF02F004948C
:10043000C282C2B219EF02F0F1EC00F080EC01F0E0
:1004400004A05CEC01F004A06EEC01F012008B8AB9
:1004500004B88C6804A88C6A69EC00F004B891ECCC
:1004600001F004BA6CEC02F004B6AFEF01F004A2A4
:10047000ECEF01F09EAA28EF02F0AECF02F0ABB293
:100480004DEC02F0D8EC02F0056A066AAFEC02F01F
:100490000FEC01F050EC02F01200AB980480120057
:1004A000F6EC00F004B888EC02F004B8DEEC00F0E2
:1004B000F29E010E066EDB0E056E3AEC01F0000EA8
:1004C000066E7D0E056E3AEC01F004B8E1EC00F02A
:1004D000D76AD66AF28E120004BC81EC02F0049C4A
:1004E000080E036E88EC02F00498049A8B948B86B5
:1004F0008B9800EE40F010EE80F020EEC0F0DEECC5
:1005000000F0530EAD6EACA283EF02F0049C12001B
:10051000F29ED7CF01F0D6CF02F003C0EFFF02C0AA
:10052000E7FF01C0DFFFE92AE12AD92A04BC9DECDC
:1005300002F0D76AD66AF28E1200AFEC02F00BC05E
:10054000ADFFACA2A1EF02F002C0ADFFACA2A6EFDE
:1005500002F001C0ADFFACA2ABEF02F01200000E42
:10056000035CD8B401EC03F0010E035CD8B40AECD0
:1005700003F0020E035CD8B413EC03F0030E035C2B
:10058000D8B41CEC03F0040E035CD8B425EC03F0E3
:10059000050E035CD8B42EEC03F0060E035CD8B451
:1005A00037EC03F0070E035CD8B440EC03F0120004
:1005B000430E025CD8B401EC03F0440E025CD8B4E4
:1005C0000AEC03F0450E025CD8B413EC03F0460EBF
:1005D000025CD8B41CEC03F0470E025CD8B425ECE6
:1005E00003F0410E025CD8B42EEC03F0420E025C24
:1005F000D8B437EC03F0630E025CD8B440EC03F0DF
:100600001200430E0B6E000E036E000E066E7D0E82
:10061000056E1200440E0B6E010E036E000E066E88
:10062000AF0E056E1200450E0B6E020E036E000E2D
:10063000066EE10E056E1200460E0B6E030E036E83
:10064000010E066E130E056E1200470E0B6E040EA1
:10065000036E010E066E450E056E1200410E0B6E06
:10066000050E036E010E066E770E056E1200420E29
:100670000B6E060E036E010E066EA90E056E1200BD
:10068000630E0B6E070E036E010E066EDB0E056E1B
:02069000120056
:020000040030CA
:0100010008F6
:010003001EDE
:010005008179
:00000001FF
