:020000040000FA
:040000008FEF01F08D
:020004000000FA
:0400080004EF01F010
:08001000395E79716F777C58AD
:080018001100F2948C7EC00E71
:10002000D66E630ED76E8B8020EC00F08B908B82A7
:1000300036EC00F08B92140E0C26D8B20D2A11006B
:100040002EEC00F02EEC00F0206A0328205CD8B4DF
:1000500012002EEC00F0202A25EF00F0216A320E6B
:10006000215CD8B41200212A2FEF00F048EC00F0F8
:1000700048EC00F0206A09A0010E09B0080E205CCF
:10008000D8B450EF00F048EC00F0202A3BEF00F02D
:10009000216A320E215CD8B41200212A49EF00F007
:1000A00009A01200140E225CD8A45AEF00F00990A7
:1000B000226A1200222A12000A6A0B6A0A2AD8B29D
:1000C0000B2AC70E0B5CD8B412005EEF00F0F09064
:1000D0005CEC00F081B2120004BE110004A60472B0
:1000E0001200F0925CEC00F081B4120004B812002F
:1000F00004BE12000476120004B6120004B884EFA5
:1001000000F0A3EC00F0120049EC02F01200010E26
:10011000E06E00EE40F0EAB21200EF6AE92AD8B2CF
:10012000EA2A8BEF00F0500EAD6EACA295EF00F016
:100130009EAA98EF00F04B0EAE5CD8B4048CABB224
:100140003CEC02F0120087EC00F093EC00F0048825
:100150008B848B968B9800EE40F010EE80F020EEB2
:10016000C0F00D6A0C6A120081B812005CEC00F05D
:1001700081A8120004BE12007CEC00F081A8BEEF42
:1001800000F09EEF01F0F2925CEC00F081B0120002
:1001900004B81200048E1200010EE06E00EE40F072
:1001A00010EE80F020EEC0F0EFCF02F0E7CF07F0C6
:1001B000DFCF08F0E92AE12AD92A080E026000EF11
:1001C00001F002C003F08EEC02F00C6A0D6A0DC063
:1001D00001F00CC002F008500160F1EF00F0E7EF11
:1001E00000F00164F6EF00F0FCEF00F00750026051
:1001F000FCEF00F0E7EF00F03FEC02F0D4EF00F08E
:10020000049E15EC01F01200F0B067EC00F0F0B2C3
:1002100071EC00F0F2B2C3EC00F0F2B40DEF00F0BC
:100220001100F298F096F0981200F288F086F088AB
:100230001200D09EF19EF19CF19AF198F184F2881F
:10024000F086F088F28EF28C1200240EAC6E910EC5
:10025000AB6E480EB86ECF0EAF6EB06A1200720E63
:10026000D36E980ED56E1200030EC26E0E0EC16EC6
:10027000890EC06E926A9280946A948C948E956A6C
:100280001200C4CF01F0C3CF02F0120003C0E8FF98
:10029000100FF66EF76AF86A0800F5CF8CFF1200AF
:1002A000010E01601200640E02601200000E035C79
:1002B000D8A403060480056A066A8EEC02F01200D8
:1002C000020E01641200840E02641200070E035C29
:1002D000D8A4032A0480056A066A8EEC02F0120094
:1002E000010E016279EF01F0C80E026412007FEF87
:1002F00001F0020E01621200320E02601200049040
:100300001200EA0E0D6086EF01F012000D648BEF13
:1003100001F0048A1200600E0C60048A12002FECB7
:1003200001F034EC01F08EEC02F019EC01F025EC58
:1003300001F0F28A46EC01F09EEF01F004BECCEC35
:1003400000F004A6DEEC01F004B6A9EC01F09EEF8B
:1003500001F015EC01F08B968B948B8804BE9EEC1B
:1003600001F004A69EEF01F09EAAAEEF01F0AECF21
:1003700002F0ABB23CEC02F0500E025CD8A4A9EF44
:1003800001F011EC01F04B0EAD6EACA2C5EF01F027
:100390009EAAC8EF01F0AECF02F0530E025CD8B4B3
:1003A000A9EF01F0ABB23CEC02F0056A066AB7ECCB
:1003B00002F03FEC02F0C8EF01F01200B4EC00F0E4
:1003C00004B881EC01F004BA49EC02F004B8EEEF95
:1003D00001F08B948B868B98F1EF01F08B848B96D8
:1003E0008B9804A2F8EC01F004B219EC02F01200B0
:1003F0008B9A81B609EF02F05CEC00F081B609EF50
:1004000002F004B40AEF02F03FEC02F004840AEFB9
:1004100002F00494C282C2B20BEF02F041EC01F090
:1004200070EC01F004A050EC01F004A060EC01F0CD
:1004300012008B8AB4EC00F004BE9EEC01F004B80C
:1004400081EC01F004BA49EC02F004B69EEF01F031
:1004500004A2DEEF01F09EAA1AEF02F0AECF02F086
:10046000ABB23CEC02F002C089FFB7EC02F08EECBC
:1004700002F03FEC02F01200AB980480120046EC50
:1004800001F004B861EC02F0098004B80C6A0D6A4E
:10049000120004BC5AEC02F0049C800EEF6E04982B
:1004A000049A8B948B868B9800EE40F010EE80F0CF
:1004B00020EEC0F0530EAD6EACA25CEF02F0049CD7
:1004C000120011EC01F003C0EFFF0CC0E7FF0DC0FC
:1004D000DFFFE92AE12AD92A04BC74EC02F00D6A94
:1004E0000C6A15EC01F012008EEC02F00EC089FFD0
:1004F0000EC0ADFFF29AACA27BEF02F0F28A0CC004
:10050000ADFFF29AACA282EF02F0F28A0DC0ADFF0D
:10051000F29AACA289EF02F0F28A1200000E035C9C
:10052000D8B4E0EC02F0010E035CD8B4E5EC02F0C4
:10053000020E035CD8B4EAEC02F0030E035CD8B4FC
:10054000EFEC02F0040E035CD8B4F4EC02F0050EFC
:10055000035CD8B4F9EC02F0060E035CD8B4FEECF0
:1005600002F0070E035CD8B403EC03F01200430E54
:10057000025CD8B4E0EC02F0440E025CD8B4E5ECC6
:1005800002F0450E025CD8B4EAEC02F0460E025CC2
:10059000D8B4EFEC02F0470E025CD8B4F4EC02F0F1
:1005A000410E025CD8B4F9EC02F0420E025CD8B401
:1005B000FEEC02F0630E025CD8B403EC03F0120010
:1005C000430E0E6E000E036E1200440E0E6E010EF0
:1005D000036E1200450E0E6E020E036E1200460EE2
:1005E0000E6E030E036E1200470E0E6E040E036EA7
:1005F0001200410E0E6E050E036E1200420E0E6EBC
:10060000060E036E1200630E0E6E070E036E1200CE
:020000040030CA
:0100010008F6
:010003001EDE
:010005008179
:00000001FF
