:020000040000FA
:04000000A1EF01F07B
:020004000000FA
:04000800BBEF00F05A
:08001000395E79716F777C58AD
:0800180011000A6AFA0E0A5CED
:10002000D8B412000A2A00000000000000000000FE
:100030000000000000000EEF00F0F0900DEC00F06A
:1000400081B2110004A604721100F0920DEC00F0D0
:1000500081B4110004B811000476110004B6120036
:1000600004B836EF00F056EC00F012006AEC02F033
:100070001200010EE06E00EE40F0EAB21200EF6AEC
:10008000E92AD8B2EA2A3DEF00F0500EAD6EACA2DC
:1000900047EF00F00DEC00F09EAA12004B0EAE5C94
:1000A000D8B4048CABB24BEC02F0120039EC00F087
:1000B00045EC00F004888B848B968B9800EE40F022
:1000C00010EE80F020EEC0F0E1EC00F0D76AD66AC6
:1000D000120081B812000DEC00F081A812002EEC85
:1000E00000F081A871EF00F0ADEF01F0F2920DEC9D
:1000F00000F081B0110004B81100F29E010EE06E14
:1001000000EE40F010EE80F020EEC0F0EFCF03F0F4
:10011000E7CF07F0DFCF08F0E92AE12AD92A080E55
:100120000360B6EF00F0D76AD66AE1EC00F0D7CFF3
:1001300001F0D6CF02F008500160A1EF00F097EF78
:1001400000F00164A6EF00F0ACEF00F00750026091
:10015000ACEF00F097EF00F0DEEC00F0ADEC02F059
:100160000FEC01F04EEC02F086EF00F0049EDEECA6
:1001700000F0F28E1100F2B276EF00F0F0B01DEF59
:1001800000F0F0B225EF00F01100D09EF19EF19C3E
:10019000F19AF198F184F288F086F088F28EF28C70
:1001A0001200240EAC6E910EAB6E480EB86E190E96
:1001B000AF6EB06A1200420ED36E1200980ED56E6A
:1001C0001200970ED56E1200030EC26E0E0EC16E97
:1001D000890EC06E926A9280946A948C948E956A0D
:1001E0001200C4CF01F0C3CF02F0120003C0E8FF39
:1001F000100FF66EF76AF86A0800F5CF8CFF120050
:10020000D6CF02F0D7CF01F006C0E8FF016200EFC1
:1002100001F005C0E8FF026400EF01F01200F29E59
:1002200004A817EF01F0D7CF08F0D6CF07F0D76AB0
:10023000D66A8B8000EC01F08B90D6CF02F0D7CF3E
:1002400001F0130E01641CEF01F0880E02641CEF34
:1002500001F004A6F28E04A81200E1EC00F0D66AC8
:10026000D76A0750D66E140ED6260850D76E1200E5
:10027000F29ED76AD66A8B82D6CF02F0D7CF01F032
:1002800006C0E8FF01623CEF01F005C0E8FF026430
:100290003CEF01F08B92D6CF02F0D7CF01F0130ED6
:1002A00001644AEF01F0880E02644AEF01F004A6EF
:1002B000F28E1200010E01601200640E0260120044
:1002C000000E035CD8A403060480056A066AADEC40
:1002D00002F00FEC01F01200020E01641200840E15
:1002E00002641200070E035CD8A4032A0480056A86
:1002F000066AADEC02F00FEC01F01200010E016293
:1003000087EF01F0C80E026412008DEF01F0020EBB
:1003100001621200320E0260120004901200D7CF68
:1003200001F0D6CF02F0EA0E016098EF01F0120062
:1003300001649DEF01F0048A1200600E0260048ADD
:100340001200DBEC00F0E4EC00F0DEEC00F0C5ECB9
:1003500000F0D1EC00F0ADEF01F004A6EAEC01F002
:1003600004B6B5EC01F0ADEF01F0F28E8B968B94F4
:100370008B8804BEADEC01F004A6ADEF01F09EAA9F
:10038000B9EF01F0AECF02F0ABB24BEC02F0500E81
:10039000025CD8A4B5EF01F0F29E4B0EAD6EACA29C
:1003A000CFEF01F09EAAD2EF01F0AECF02F0530ED4
:1003B000025CD8B4B5EF01F0ABB24BEC02F0056AC9
:1003C000066AD6EC02F00FEC01F04EEC02F0D2EF30
:1003D00001F0120069EC00F004B8F4EF01F08B9426
:1003E0008B868B98F7EF01F08B848B968B9804A209
:1003F000FEEC01F004B225EC02F012008B9A04B876
:100400008FEC01F004BA6AEC02F081B615EF02F04D
:100410000DEC00F081B615EF02F004B416EF02F017
:100420004EEC02F0048416EF02F00494C282C2B2D1
:1004300017EF02F0F1EC00F07EEC01F004A05AECB2
:1004400001F004A06CEC01F012008B8A04B88C68F7
:1004500004A88C6A69EC00F004B88FEC01F004BACF
:100460006AEC02F004B6ADEF01F004A2EAEF01F08D
:100470009EAA26EF02F0AECF02F0ABB24BEC02F038
:10048000D6EC02F0056A066AADEC02F00FEC01F062
:100490004EEC02F01200AB9804801200F6EC00F073
:1004A00004B886EC02F004B8DEEC00F0F29E010E17
:1004B000066EDB0E056E38EC01F0000E066E7D0E4A
:1004C000056E38EC01F004B8E1EC00F0D76AD66AAA
:1004D000F28E120004BC7FEC02F0049C080E036E46
:1004E00086EC02F00498049A8B948B868B9800EE2D
:1004F00040F010EE80F020EEC0F0DEEC00F0530E85
:10050000AD6EACA281EF02F0049C1200F29ED7CF38
:1005100001F0D6CF02F003C0EFFF02C0E7FF01C039
:10052000DFFFE92AE12AD92A04BC9BEC02F0D76A52
:10053000D66AF28E1200ADEC02F00BC0ADFFACA299
:100540009FEF02F002C0ADFFACA2A4EF02F001C029
:10055000ADFFACA2A9EF02F01200000E035CD8B40C
:10056000FFEC02F0010E035CD8B408EC03F0020EBD
:10057000035CD8B411EC03F0030E035CD8B41AEC9E
:1005800003F0040E035CD8B423EC03F0050E035C07
:10059000D8B42CEC03F0060E035CD8B435EC03F0B1
:1005A000070E035CD8B43EEC03F01200430E025C6D
:1005B000D8B4FFEC02F0440E025CD8B408EC03F0AF
:1005C000450E025CD8B411EC03F0460E025CD8B4C0
:1005D0001AEC03F0470E025CD8B423EC03F0410E92
:1005E000025CD8B42CEC03F0420E025CD8B435ECBB
:1005F00003F0630E025CD8B43EEC03F01200430E2D
:100600000B6E000E036E000E066E7D0E056E120060
:10061000440E0B6E010E036E000E066EAF0E056EDD
:100620001200450E0B6E020E036E000E066EE10EFA
:10063000056E1200460E0B6E030E036E010E066E63
:10064000130E056E1200470E0B6E040E036E010EA4
:10065000066E450E056E1200410E0B6E050E036E02
:10066000010E066E770E056E1200420E0B6E060E20
:10067000036E010E066EA90E056E1200630E0B6E60
:0E068000070E036E010E066EDB0E056E1200F5
:020000040030CA
:0100010008F6
:010003001EDE
:010005008179
:00000001FF
