:020000040000FA
:0400000087EF01F095
:020004000000FA
:04000800FCEF00F019
:08001000395E79716F777C58AD
:080018001100F294140E0C26F5
:10002000D8B00D2AC00ED66E630ED76E8B801FEC33
:1000300000F08B908B8232EC00F08B921100206AE2
:10004000020E0324205CD8B412002AEC00F0202A0F
:1000500020EF00F0216A3C0E215CD8B41200212A66
:100060002BEF00F0206A09A0080E09B00B0E205CEF
:10007000D8B448EF00F040EC00F0202A33EF00F055
:10008000216A2E0E215CD8B41200212A41EF00F023
:1000900009A01200320E225CD8A452EF00F00990A1
:1000A000226A1200222A12000A6A0B6A0A2AD8B2AD
:1000B0000B2AC70E0B5CD8B4120056EF00F0F0907C
:1000C00054EC00F081B2120004BE110004A60472C8
:1000D0001200F09254EC00F081B4120004B8120047
:1000E00004BE12000476120004B6120004B87CEFBD
:1000F00000F09BEC00F012003FEC02F01200010E49
:10010000E06E00EE40F0EAB21200EF6AE92AD8B2DF
:10011000EA2A83EF00F0500EAD6EACA28DEF00F036
:100120009EAA90EF00F04B0EAE5CD8B4048CABB23C
:1001300033EC02F012007FEC00F08BEC00F004884E
:100140008B848B968B9800EE40F010EE80F020EEC2
:10015000C0F00D6A0C6A120081B8120054EC00F075
:1001600081A8120004BE120074EC00F081A8B6EF62
:1001700000F096EF01F0F29254EC00F081B0120022
:1001800004B81200048E1200010EE06E00EE40F082
:1001900010EE80F020EEC0F0EFCF02F0E7CF07F0D6
:1001A000DFCF08F0E92AE12AD92A080E0260F8EF29
:1001B00000F002C003F080EC02F00C6A0D6A0DC082
:1001C00001F00CC002F008500160E9EF00F0DFEF31
:1001D00000F00164EEEF00F0F4EF00F00750026071
:1001E000F4EF00F0DFEF00F036EC02F0CCEF00F0BF
:1001F000049E0DEC01F01200F0B05FEC00F0F0B2E4
:1002000069EC00F0F2B2BBEC00F0F2B40DEF00F0DC
:100210001100F298F096F0981200F288F086F088BB
:100220001200D09EF19EF19CF19AF198F184F2882F
:10023000F086F088F28EF28C1200240EAC6E910ED5
:10024000AB6E480EB86ECF0EAF6EB06A1200720E73
:10025000D36E980ED56E1200030EC26E0E0EC16ED6
:10026000890EC06E926A9280946A948C948E956A7C
:100270001200C4CF01F0C3CF02F0120003C0E8FFA8
:10028000100FF66EF76AF86A0800F5CF8CFF1200BF
:10029000010E016012007D0E02601200000E035C70
:1002A000D8A403060480056A066A80EC02F01200F6
:1002B000020E01641200840E02641200070E035C39
:1002C000D8A4032A0480056A066A80EC02F01200B2
:1002D000010E016271EF01F0C80E0264120077EFA7
:1002E00001F0020E01621200320E02601200049050
:1002F0001200EA0E0D607EEF01F012000D6483EF34
:1003000001F0048A1200600E0C60048A120027ECCF
:1003100001F02CEC01F080EC02F011EC01F01DEC8E
:1003200001F0F28A3EEC01F096EF01F004BEC4EC5D
:1003300000F004A6D6EC01F004B6A1EC01F096EFB3
:1003400001F00DEC01F08B968B948B8804BE96EC3B
:1003500001F004A696EF01F09EAAA6EF01F0AECF41
:1003600002F0ABB233EC02F0500E025CD8A4A1EF65
:1003700001F009EC01F04B0EAD6EACA2BDEF01F047
:100380009EAAC0EF01F0AECF02F0530E025CD8B4CB
:10039000A1EF01F0ABB233EC02F0056A066AA9ECFA
:1003A00002F036EC02F0C0EF01F01200ACEC00F00D
:1003B00004B879EC01F004BA3FEC02F004B8E6EFBF
:1003C00001F08B948B868B98E9EF01F08B848B96F0
:1003D0008B9804A2F0EC01F004B212EC02F01200CF
:1003E0008B9A81B602EF02F004A454EC00F081B6BF
:1003F00002EF02F004B403EF02F036EC02F00484E2
:1004000003EF02F00494C282C2B204EF02F039ECAE
:1004100001F068EC01F004A048EC01F004A058ECF5
:1004200001F012008B8AACEC00F004BE96EC01F0F7
:1004300004B879EC01F004BA3FEC02F004B696EF90
:1004400001F004A2D6EF01F09EAA13EF02F0AECFA6
:1004500002F0ABB233EC02F0A9EC02F080EC02F057
:1004600036EC02F01200AB98048012003EEC01F072
:1004700004B857EC02F009800C6A0D6A120004BC43
:1004800050EC02F0049C800EEF6E0498049A8B945A
:100490008B868B9800EE40F010EE80F020EEC0F0DE
:1004A000530EAD6EACA252EF02F0049C120009ECA8
:1004B00001F003C0EFFF0CC0E7FF0DC0DFFFE92A2A
:1004C000E12AD92A04BC68EC02F00DEC01F012001C
:1004D00080EC02F00EC0ADFFF29AACA26DEF02F01C
:1004E000F28A0CC0ADFFF29AACA274EF02F0F28A6D
:1004F0000DC0ADFFF29AACA27BEF02F0F28A1200BF
:10050000000E035CD8B4D2EC02F0010E035CD8B448
:10051000D7EC02F0020E035CD8B4DCEC02F0030E60
:10052000035CD8B4E1EC02F0040E035CD8B4E6EC52
:1005300002F0050E035CD8B4EBEC02F0060E035C8F
:10054000D8B4F0EC02F0070E035CD8B4F5EC02F07E
:100550001200430E025CD8B4D2EC02F0440E025CEE
:10056000D8B4D7EC02F0450E025CD8B4DCEC02F053
:10057000460E025CD8B4E1EC02F0470E025CD8B43F
:10058000E6EC02F0410E025CD8B4EBEC02F0420E55
:10059000025CD8B4F0EC02F0630E025CD8B4F5EC67
:1005A00002F01200430E0E6E000E036E1200440E97
:1005B0000E6E010E036E1200450E0E6E020E036EDD
:1005C0001200460E0E6E030E036E1200470E0E6EE4
:1005D000040E036E1200410E0E6E050E036E120025
:1005E000420E0E6E060E036E1200630E0E6E070EA6
:0405F000036E120084
:020000040030CA
:0100010008F6
:010003001EDE
:010005008179
:00000001FF
