:020000040000FA
:0400000078EF01F0A4
:020004000000FA
:04000800EDEF00F028
:08001000395E79716F777C58AD
:080018001100F294C00ED66E37
:10002000630ED76E8B8020EC00F08B908B8236ECC9
:1000300000F08B920990140E0C26D8B20D2A1100F4
:100040002EEC00F02EEC00F0206A0328205CD8B4DF
:1000500012002EEC00F0202A25EF00F0216A320E6B
:10006000215CD8B41200212A2FEF00F047EC00F0F9
:1000700047EC00F0206A09A0010E09A0080E205CE0
:10008000D8B4120047EC00F0202A3BEF00F0216AC0
:10009000320E215CD8B41200212A48EF00F0120081
:1000A0000A6A0B6A0A2AD8B20B2AC70E0B5CD8B4AC
:1000B000120052EF00F0F09050EC00F081B212000C
:1000C00004A604721200F09250EC00F081B4120009
:1000D00004B812000476120004B6120004B874EFDB
:1000E00000F094EC00F0120028EC02F01200010E77
:1000F000E06E00EE40F0EAB21200EF6AE92AD8B2F0
:10010000EA2A7BEF00F0500EAD6EACA285EF00F056
:1001100050EC00F09EAA12004B0EAE5CD8B4048CDA
:10012000ABB21BEC02F0120077EC00F083EC00F0B5
:1001300004888B848B968B9800EE40F010EE80F054
:1001400020EEC0F00D6A0C6A120081B8120050EC6B
:1001500000F081A812006CEC00F081A8ADEF00F077
:1001600083EF01F0F29250EC00F081B0110004B87E
:100170001100FAEC00F0010EE06E00EE40F010EE1F
:1001800080F020EEC0F0EFCF03F0E7CF07F0DFCF35
:1001900008F0E92AE12AD92A080E0360E9EF00F005
:1001A0000C6A0D6A08500D60D8EF00F0D2EF00F035
:1001B0000D64DDEF00F0E3EF00F00C500260E3EFC0
:1001C00000F0D2EF00F070EC02F01EEC02F0C3EF92
:1001D00000F0049EFEEC00F01100F0B05BEC00F0CB
:1001E000F0B263EC00F0F2B40DEF00F0F2B2B2EF57
:1001F00000F01100F298F096F0981200F288F08664
:10020000F0881200D09EF19EF19CF19AF198F18451
:10021000F288F086F088F28EF28C1200240EAC6E1A
:10022000910EAB6E480EB86ECF0EAF6EB06A120074
:10023000720ED36E980ED56E1200030EC26E0E0EA5
:10024000C16E890EC06E926A9280946A948C948E6C
:10025000956A1200C4CF01F0C3CF02F0120003C0B0
:10026000E8FF100FF66EF76AF86A0800F5CF8CFF0A
:100270001200010E01601200640E02601200000EF6
:10028000035CD8A403060480056A066A70EC02F0D9
:100290001200020E01641200840E02641200070EA6
:1002A000035CD8A4032A0480056A066A70EC02F095
:1002B0001200010E016262EF01F0C80E026412002A
:1002C00068EF01F0020E01621200320E02601200AD
:1002D00004901200EA0E0D606FEF01F012000D6441
:1002E00074EF01F0048A1200600E0C60048A1200A0
:1002F00018EC01F01DEC01F070EC02F002EC01F0E2
:100300000EEC01F0F28A04A6C0EC01F004B68BEC0E
:1003100001F083EF01F0FEEC00F08B968B948B885C
:1003200004BE83EC01F004A683EF01F09EAA90EFD7
:1003300001F0AECF02F0ABB21BEC02F0500E025C4B
:10034000D8A48BEF01F0FAEC00F04B0EAD6EACA22E
:10035000A7EF01F09EAAAAEF01F0AECF02F0530E74
:10036000025CD8B48BEF01F0ABB21BEC02F0056A73
:10037000066A99EC02F01EEC02F0AAEF01F01200FE
:10038000A5EC00F004B86AEC01F004BA28EC02F025
:1003900004B8D0EF01F08B948B868B98D3EF01F0EB
:1003A0008B848B968B9804A2DAEC01F004B2FBEC00
:1003B00001F012008B9A81B6EBEF01F050EC00F0E7
:1003C00081B6EBEF01F004B4ECEF01F01EEC02F0AB
:1003D0000484ECEF01F00494C282C2B2EDEF01F0AC
:1003E0002AEC01F059EC01F004A039EC01F004A072
:1003F00049EC01F012008B8AA5EC00F004B86AEC1D
:1004000001F004BA28EC02F004B683EF01F004A274
:10041000C0EF01F09EAAFCEF01F0AECF02F0ABB24C
:100420001BEC02F002C089FF99EC02F070EC02F0C4
:100430001EEC02F01200AB98048012002FEC01F0C9
:1004400004B842EC02F0098404B80C6A0D6A120088
:1004500004BC3BEC02F0049C080E036E42EC02F07C
:100460000498049A8B948B868B9800EE40F010EEE3
:1004700080F020EEC0F0530EAD6EACA23DEF02F066
:10048000049C1200FAEC00F003C0EFFF0CC0E7FF81
:100490000DC0DFFFE92AE12AD92A04B855EC02F0A1
:1004A0000D6A0C6AFEEC00F012008C7E70EC02F01B
:1004B0000EC089FF0EC0ADFFF29AACA25DEF02F054
:1004C000F28A0CC0ADFFF29AACA264EF02F0F28A9D
:1004D0000DC0ADFFF29AACA26BEF02F0F28A1200EF
:1004E000000E035CD8B4C2EC02F0010E035CD8B479
:1004F000C7EC02F0020E035CD8B4CCEC02F0030EA1
:10050000035CD8B4D1EC02F0040E035CD8B4D6EC92
:1005100002F0050E035CD8B4DBEC02F0060E035CBF
:10052000D8B4E0EC02F0070E035CD8B4E5EC02F0BE
:100530001200430E025CD8B4C2EC02F0440E025C1E
:10054000D8B4C7EC02F0450E025CD8B4CCEC02F093
:10055000460E025CD8B4D1EC02F0470E025CD8B46F
:10056000D6EC02F0410E025CD8B4DBEC02F0420E95
:10057000025CD8B4E0EC02F0630E025CD8B4E5ECA7
:1005800002F01200430E0E6E000E036E1200440EB7
:100590000E6E010E036E1200450E0E6E020E036EFD
:1005A0001200460E0E6E030E036E1200470E0E6E04
:1005B000040E036E1200410E0E6E050E036E120045
:1005C000420E0E6E060E036E1200630E0E6E070EC6
:0405D000036E1200A4
:020000040030CA
:0100010008F6
:010003001EDE
:010005008179
:00000001FF
