:020000040000FA
:04000000F1EF00F02C
:020004000000FA
:0400080013EF00F002
:08001000395E79716F777C58AD
:080018001100F09004721100C8
:10002000F09204761100F0B00DEF00F0F0B210EF96
:1000300000F01100D09EF19EF19AF086F088F28EC9
:10004000F28C1200240EAC6E910EAB6E480EB86EA0
:10005000190EAF6EB06A1200420ED36E1200980EE7
:10006000D56E1200030EC26E0E0EC16E890EC06EEA
:100070009280946A948C948E956A1200C4CF01F099
:10008000C3CF02F0120003C0E8FF100FF66EF76A4C
:10009000F86A0800F5CF8CFF1200000E066E7D0E88
:1000A000056E1200000E066EAF0E056E1200000EF9
:1000B000066EE10E056E1200010E066E130E056E41
:1000C0001200010E066E450E056E1200010E066E40
:1000D000770E056E1200010E066EA90E056E120057
:1000E000010E066EDB0E056E1200D6CF02F0D7CFE2
:1000F00001F006C0E8FF016275EF00F005C0E8FFFF
:10010000026475EF00F01200F29ED76AD66A8B8007
:1001100075EC00F08B90D6CF02F0D7CF01F0130E24
:1001200001648AEF00F0880E02648AEF00F004A6F2
:10013000F28E1200F29ED76AD66A8B82D6CF02F078
:10014000D7CF01F006C0E8FF01629EEF00F005C0C6
:10015000E8FF02649EEF00F08B92D6CF02F0D7CF7B
:1001600001F0130E0164ACEF00F0880E0264ACEFF6
:1001700000F004A6F28E1200010E01601200640E5F
:1001800002601200000E035CD8A403060480056A16
:10019000066A8BEC01F084EC00F01200020E0164A0
:1001A0001200840E02641200070E035CD8A4032A16
:1001B0000480056A066A8BEC01F084EC00F0120002
:1001C000010E0162E9EF00F0C80E02641200EFEFC9
:1001D00000F0020E01621200320E02601200049062
:1001E00012002CEC00F032EC00F02FEC00F01AECD6
:1001F00000F022EC00F0FDEF00F004A637EC01F077
:1002000004B605EC01F0FDEF00F0F28E8B968B94B6
:100210008B8804A6FDEF00F09EAA09EF01F0AECF97
:1002200002F0ABB277EC01F0500E025CD8A405EFFF
:1002300001F04B0EAD6EACA21BEF01F0F29E9EAA38
:100240001FEF01F0AECF02F0530E025CD8B405EF01
:1002500001F0ABB277EC01F0056A066AB4EC01F08C
:1002600084EC00F07AEC01F01FEF01F012008B86B5
:100270008B948B9804A241EC01F004B25DEC01F088
:1002800012008B9A81B04DEF01F004B44EEF01F0F3
:100290007AEC01F004844EEF01F00494C282C2B201
:1002A0004FEF01F03EEC00F0E0EC00F004A0BCECFD
:1002B00000F004A0CEEC00F012008B8A04A237EF0D
:1002C00001F004A6FDEF00F09EAA5EEF01F0AECFB4
:1002D00002F0ABB277EC01F0056A066AB4EC01F00B
:1002E0008BEC01F084EC00F07AEC01F01200AB989A
:1002F00004801200F29E43EC00F0010E066EDB0E4D
:10030000056E9AEC00F0000E066E7D0E056E9AECFE
:1003100000F0F28E1200000E035CD8B44DEC00F039
:10032000010E035CD8B452EC00F0020E035CD8B4AA
:1003300057EC00F0030E035CD8B45CEC00F0040E44
:10034000035CD8B461EC00F0050E035CD8B466EC35
:1003500000F0060E035CD8B46BEC00F0070E035CF3
:10036000D8B470EC00F01200430E025CD8B4000E5A
:10037000036E440E025CD8B4010E036E450E025C9F
:10038000D8B4020E036E460E025CD8B4030E036EA0
:10039000470E025CD8B4040E036E410E025CD8B462
:1003A000050E036E420E025CD8B4060E036E630E99
:0A03B000025CD8B4070E036E1200C1
:020000040030CA
:0100010008F6
:010003001EDE
:010005008179
:00000001FF
