:020000040000FA
:0400000084EF01F098
:020004000000FA
:04000800F9EF00F01C
:08001000395E79716F777C58AD
:080018001100F2948C7EC00E71
:10002000D66E630ED76E8B8021EC00F08B908B82A6
:1000300037EC00F08B920990140E0C26D8B20D2AE2
:1000400011002FEC00F02FEC00F0206A0328205C58
:10005000D8B412002FEC00F0202A26EF00F0216A1D
:10006000320E215CD8B41200212A30EF00F048ECA7
:1000700000F048EC00F0206A09B0010E09A0080E5B
:10008000205CD8B4120048EC00F0202A3CEF00F0CD
:10009000216A320E215CD8B41200212A49EF00F007
:1000A00012000A6A0B6A0A2AD8B20B2AC70E0B5C26
:1000B000D8B4120053EF00F0F09051EC00F081B290
:1000C000120004BE110004A604721200F09251EC5A
:1000D00000F081B4120004B8120004BE12000476CD
:1000E000120004B6120004B879EF00F098EC00F0AA
:1000F00012003EEC02F01200010EE06E00EE40F045
:10010000EAB21200EF6AE92AD8B2EA2A80EF00F0D8
:10011000500EAD6EACA28AEF00F09EAA8DEF00F0FB
:100120004B0EAE5CD8B4048CABB231EC02F01200D2
:100130007CEC00F088EC00F004888B848B968B9824
:1001400000EE40F010EE80F020EEC0F00D6A0C6A78
:10015000120081B8120051EC00F081A8120004BE18
:10016000120071EC00F081A8B3EF00F093EF01F002
:10017000F29251EC00F081B0120004B81200048E2B
:100180001200010EE06E00EE40F010EE80F020EE66
:10019000C0F0EFCF02F0E7CF07F0DFCF08F0E92A99
:1001A000E12AD92A080E0260F5EF00F002C003F040
:1001B00083EC02F00C6A0D6A0DC001F00CC002F075
:1001C00008500160E6EF00F0DCEF00F00164EBEFB7
:1001D00000F0F1EF00F007500260F1EF00F0DCEF0B
:1001E00000F034EC02F0C9EF00F0049E0AEC01F0DC
:1001F0001200F0B05CEC00F0F0B266EC00F0F2B28D
:10020000B8EC00F0F2B40DEF00F01100F298F096A7
:10021000F0981200F288F086F0881200D09EF19ECD
:10022000F19CF19AF198F184F288F086F088F28ED0
:10023000F28C1200240EAC6E910EAB6E480EB86EAE
:10024000CF0EAF6EB06A1200720ED36E980ED56EDE
:100250001200030EC26E0E0EC16E890EC06E926A3F
:100260009280946A948C948E956A1200C4CF01F0A7
:10027000C3CF02F0120003C0E8FF100FF66EF76A5A
:10028000F86A0800F5CF8CFF1200010E0160120021
:10029000640E02601200000E035CD8A40306048002
:1002A000056A066A83EC02F01200020E0164120075
:1002B000840E02641200070E035CD8A4032A048093
:1002C000056A066A83EC02F01200010E01626EEF0D
:1002D00001F0C80E0264120074EF01F0020E016218
:1002E0001200320E0260120004901200EA0E0D603D
:1002F0007BEF01F012000D6480EF01F0048A120020
:10030000600E0C60048A120024EC01F029EC01F06C
:1003100083EC02F00EEC01F01AEC01F0F28A3BECF7
:1003200001F093EF01F004BEC1EC00F004A6D3ECA1
:1003300001F004B69EEC01F093EF01F00AEC01F03D
:100340008B968B948B8804BE93EC01F004A693EFFC
:1003500001F09EAAA3EF01F0AECF02F0ABB231ECF8
:1003600002F0500E025CD8A49EEF01F006EC01F002
:100370004B0EAD6EACA2BAEF01F09EAABDEF01F03C
:10038000AECF02F0530E025CD8B49EEF01F0ABB2D8
:1003900031EC02F0056A066AACEC02F034EC02F0D3
:1003A000BDEF01F01200A9EC00F004B876EC01F00A
:1003B00004BA3EEC02F004B8E3EF01F08B948B86B4
:1003C0008B98E6EF01F08B848B968B9804A2EDEC72
:1003D00001F004B20EEC02F012008B9A81B6FEEF2F
:1003E00001F051EC00F081B6FEEF01F004B4FFEF34
:1003F00001F034EC02F00484FFEF01F00494C282B7
:10040000C2B200EF02F036EC01F065EC01F004A09E
:1004100045EC01F004A055EC01F012008B8AA9EC28
:1004200000F004BE93EC01F004B876EC01F004BADD
:100430003EEC02F004B693EF01F004A2D3EF01F01A
:100440009EAA0FEF02F0AECF02F0ABB231EC02F099
:1004500002C089FFACEC02F083EC02F034EC02F055
:100460001200AB98048012003BEC01F004B856EC8B
:1004700002F0098004B80C6A0D6A120004BC4FEC4B
:1004800002F0049C800EEF6E0498049A8B948B8685
:100490008B9800EE40F010EE80F020EEC0F0530E8E
:1004A000AD6EACA251EF02F0049C120006EC01F01C
:1004B00003C0EFFF0CC0E7FF0DC0DFFFE92AE12A10
:1004C000D92A04BC69EC02F00D6A0C6A0AEC01F04E
:1004D000120083EC02F00EC089FF0EC0ADFFF29A4D
:1004E000ACA270EF02F0F28A0CC0ADFFF29AACA29F
:1004F00077EF02F0F28A0DC0ADFFF29AACA27EEF68
:1005000002F0F28A1200000E035CD8B4D5EC02F0BF
:10051000010E035CD8B4DAEC02F0020E035CD8B42E
:10052000DFEC02F0030E035CD8B4E4EC02F0040E3E
:10053000035CD8B4E9EC02F0050E035CD8B4EEEC31
:1005400002F0060E035CD8B4F3EC02F0070E035C75
:10055000D8B4F8EC02F01200430E025CD8B4D5EC2B
:1005600002F0440E025CD8B4DAEC02F0450E025CF4
:10057000D8B4DFEC02F0460E025CD8B4E4EC02F032
:10058000470E025CD8B4E9EC02F0410E025CD8B42C
:10059000EEEC02F0420E025CD8B4F3EC02F0630E13
:1005A000025CD8B4F8EC02F01200430E0E6E000E9E
:1005B000036E1200440E0E6E010E036E1200450E05
:1005C0000E6E020E036E1200460E0E6E030E036ECA
:1005D0001200470E0E6E040E036E1200410E0E6ED8
:1005E000050E036E1200420E0E6E060E036E120012
:0A05F000630E0E6E070E036E12007C
:020000040030CA
:0100010008F6
:010003001EDE
:010005008179
:00000001FF
