:020000040000FA
:0400000050EF01F0CC
:020004000000FA
:0400080035EF00F0E0
:08001000395E79716F777C58AD
:080018001100186AFA0E185CD1
:10002000D8B41200182A00000000000000000000F0
:100030000000000000000EEF00F0F0900DEC00F06A
:1000400081B2110004A604721100F0920DEC00F0D0
:1000500081B4110004761100F2920DEC00F081B031
:10006000110004A68B8404781100F2B22CEF00F08A
:10007000F0B01DEF00F0F0B225EF00F01100D09EBF
:10008000F19EF19AF184F288F086F088F28EF28C7B
:100090001200240EAC6E910EAB6E480EB86E190EA7
:1000A000AF6EB06A1200420ED36E1200F29A980E32
:1000B000D56E1200F28A9F0ED56E1200030EC26E2C
:1000C0000E0EC16E890EC06E9280946A948C948ECE
:1000D000956A1200C4CF01F0C3CF02F0120003C032
:1000E000E8FF100FF66EF76AF86A0800F5CF8CFF8C
:1000F0001200000E036E000E066E7D0E056E1200DD
:10010000010E036E000E066EAF0E056E1200020E9B
:10011000036E000E066EE10E056E1200030E036EF6
:10012000010E066E130E056E1200040E036E010E14
:10013000066E450E056E1200050E036E010E066E6C
:10014000770E056E1200060E036E010E066EA90EE6
:10015000056E1200070E036E010E066EDB0E056EB5
:100160001200D6CF02F0D7CF01F006C0E8FF01623F
:10017000B1EF00F005C0E8FF0264B1EF00F012003B
:10018000F29E04A8CAEF00F0D7CF08F0D6CF07F050
:1001900056EC00F0D76AD66A8B80B1EC00F08B90F9
:1001A000D6CF02F0D7CF01F0130E0164CFEF00F0ED
:1001B000880E0264CFEF00F004A6F28E04A81200AD
:1001C00007C0E8FF140FD66ED8B2082A08C0D7FFC0
:1001D0005AEC00F01200F29ED76AD66A8B82D6CF14
:1001E00002F0D7CF01F006C0E8FF0162EFEF00F0A8
:1001F00005C0E8FF0264EFEF00F08B92D6CF02F06B
:10020000D7CF01F0130E0164FDEF00F0880E0264F9
:10021000FDEF00F004A6F28E1200010E0160120044
:10022000640E02601200000E035CD8A40306048072
:10023000056A066A0FEC02F0C0EC00F01200020E34
:1002400001641200840E02641200070E035CD8A43D
:10025000032A0480056A066A0FEC02F0C0EC00F085
:100260001200010E01623AEF01F0C80E02641200A2
:1002700040EF01F0020E01621200320E0260120025
:1002800004901200EA0ED76047EF01F01200D76425
:100290004CEF01F0048A1200600ED660048A12004E
:1002A00053EC00F05EEC00F056EC00F03FEC00F098
:1002B00049EC00F05CEF01F004A696EC01F004B606
:1002C00064EC01F05CEF01F0F28E8B968B948B88DE
:1002D00004A65CEF01F09EAA68EF01F0AECF02F039
:1002E000ABB2EFEC01F0500E025CD8A464EF01F069
:1002F000F29E4B0EAD6EACA27BEF01F09EAA7EEF9C
:1003000001F0AECF02F0530E025CD8B464EF01F0FE
:10031000ABB2EFEC01F0056A066A38EC02F0C0EC13
:1003200000F0F2EC01F07EEF01F0120004B89EEF55
:1003300001F08B948B868B98A1EF01F08B848B96C8
:100340008B9804A2A8EC01F004B2CFEC01F01200EB
:100350008B9A04B842EC01F004BA0CEC02F081B6BE
:10036000BFEF01F00DEC00F081B6BFEF01F004B477
:10037000C0EF01F0F2EC01F00484C0EF01F004944E
:10038000C282C2B2C1EF01F06AEC00F031EC01F0C0
:1003900004A00DEC01F004A01FEC01F012008B8A08
:1003A00004B842EC01F004BA0CEC02F004B65CEFC5
:1003B00001F004A296EF01F09EAAD0EF01F0AECFBB
:1003C00002F002C08CFFABB2EFEC01F0056A066AE6
:1003D00038EC02F0C0EC00F0F2EC01F01200AB9847
:1003E000048012006FEC00F004B80DEC02F004B8C9
:1003F00056EC00F0F29E010E066EDB0E056EEBEC85
:1004000000F0000E066E7D0E056EEBEC00F004B8F9
:100410005AEC00F0F28E120012008C8E1200000EC8
:10042000035CD8B479EC00F0010E035CD8B480EC26
:1004300000F0020E035CD8B487EC00F0030E035CFE
:10044000D8B48EEC00F0040E035CD8B495EC00F048
:10045000050E035CD8B49CEC00F0060E035CD8B427
:10046000A3EC00F0070E035CD8B4AAEC00F0120075
:10047000430E025CD8B479EC00F0440E025CD8B4B0
:1004800080EC00F0450E025CD8B487EC00F0460E1C
:10049000025CD8B48EEC00F0470E025CD8B495EC48
:1004A00000F0410E025CD8B49CEC00F0420E025CFD
:1004B000D8B4A3EC00F0630E025CD8B4AAEC00F050
:0204C000120028
:020000040030CA
:0100010008F6
:010003001EDE
:010005008179
:00000001FF
