:020000040000FA
:040000008EEF01F08E
:020004000000FA
:0400080003EF01F011
:08001000395E79716F777C58AD
:080018001100F294140E0C26F5
:10002000D8B00D2AC00ED66E630ED76E8B801FEC33
:1000300000F08B908B8235EC00F08B9211002DEC50
:1000400000F02DEC00F0206A0328205CD8B41200E8
:100050002DEC00F0202A24EF00F0216A320E215C02
:10006000D8B41200212A2EEF00F047EC00F047EC44
:1000700000F0206A09A0010E09B0080E205CD8B477
:100080004FEF00F047EC00F0202A3AEF00F0216A31
:10009000320E215CD8B41200212A48EF00F009A0EA
:1000A0001200140E225CD8A459EF00F00990226AC5
:1000B0001200222A12000A6A0B6A0A2AD8B20B2AF4
:1000C000C70E0B5CD8B412005DEF00F0F0905BEC53
:1000D00000F081B2120004BE110004A604721200E6
:1000E000F0925BEC00F081B4120004B8120004BE80
:1000F00012000476120004B6120004B883EF00F078
:10010000A2EC00F0120046EC02F01200010EE06ECC
:1001100000EE40F0EAB21200EF6AE92AD8B2EA2A09
:100120008AEF00F0500EAD6EACA294EF00F09EAAE4
:1001300097EF00F04B0EAE5CD8B4048CABB23AEC47
:1001400002F0120086EC00F092EC00F004888B8440
:100150008B968B9800EE40F010EE80F020EEC0F011
:100160000D6A0C6A120081B812005BEC00F081A8E5
:10017000120004BE12007BEC00F081A8BDEF00F07D
:100180009DEF01F0F2925BEC00F081B0120004B838
:100190001200048E1200010EE06E00EE40F010EE30
:1001A00080F020EEC0F0EFCF02F0E7CF07F0DFCF16
:1001B00008F0E92AE12AD92A080E0260FFEF00F0D0
:1001C00002C003F087EC02F00C6A0D6A0DC001F06A
:1001D0000CC002F008500160F0EF00F0E6EF00F014
:1001E0000164F5EF00F0FBEF00F007500260FBEF59
:1001F00000F0E6EF00F03DEC02F0D3EF00F0049EDB
:1002000014EC01F01200F0B066EC00F0F0B270EC0B
:1002100000F0F2B2C2EC00F0F2B40DEF00F0110009
:10022000F298F096F0981200F288F086F0881200AA
:10023000D09EF19EF19CF19AF198F184F288F086BB
:10024000F088F28EF28C1200240EAC6E910EAB6E22
:10025000480EB86ECF0EAF6EB06A1200720ED36E3B
:10026000980ED56E1200030EC26E0E0EC16E890E70
:10027000C06E926A9280946A948C948E956A1200F1
:10028000C4CF01F0C3CF02F0120003C0E8FF100F8B
:10029000F66EF76AF86A0800F5CF8CFF1200010EBF
:1002A00001601200640E02601200000E035CD8A40C
:1002B00003060480056A066A87EC02F01200020E4B
:1002C00001641200840E02641200070E035CD8A4BD
:1002D000032A0480056A066A87EC02F01200010E08
:1002E000016278EF01F0C80E026412007EEF01F0A7
:1002F000020E01621200320E02601200049012001F
:10030000EA0E0D6085EF01F012000D648AEF01F036
:10031000048A1200600E0C60048A12002EEC01F0B8
:1003200033EC01F087EC02F018EC01F024EC01F062
:10033000F28A45EC01F09DEF01F004BECBEC00F039
:1003400004A6DDEC01F004B6A8EC01F09DEF01F08D
:1003500014EC01F08B968B948B8804BE9DEC01F01D
:1003600004A69DEF01F09EAAADEF01F0AECF02F022
:10037000ABB23AEC02F0500E025CD8A4A8EF01F048
:1003800010EC01F04B0EAD6EACA2C4EF01F09EAAD2
:10039000C7EF01F0AECF02F0530E025CD8B4A8EF65
:1003A00001F0ABB23AEC02F0056A066AB0EC02F07A
:1003B0003DEC02F0C7EF01F01200B3EC00F004B81E
:1003C00080EC01F004BA46EC02F004B8EDEF01F065
:1003D0008B948B868B98F0EF01F08B848B968B98A7
:1003E00004A2F7EC01F004B219EC02F012008B9AAF
:1003F00081B609EF02F004A45BEC00F081B609EFCE
:1004000002F004B40AEF02F03DEC02F004840AEFBB
:1004100002F00494C282C2B20BEF02F040EC01F091
:100420006FEC01F004A04FEC01F004A05FEC01F0D0
:1004300012008B8AB3EC00F004BE9DEC01F004B80E
:1004400080EC01F004BA46EC02F004B69DEF01F036
:1004500004A2DDEF01F09EAA1AEF02F0AECF02F087
:10046000ABB23AEC02F0B0EC02F087EC02F03DECFB
:1004700002F01200AB980480120045EC01F004B8C1
:100480005EEC02F009800C6A0D6A120004BC57ECA5
:1004900002F0049C800EEF6E0498049A8B948B8675
:1004A0008B9800EE40F010EE80F020EEC0F0530E7E
:1004B000AD6EACA259EF02F0049C120010EC01F0FA
:1004C00003C0EFFF0CC0E7FF0DC0DFFFE92AE12A00
:1004D000D92A04BC6FEC02F014EC01F0120087EC96
:1004E00002F00EC0ADFFF29AACA274EF02F0F28AF5
:1004F0000CC0ADFFF29AACA27BEF02F0F28A0DC005
:10050000ADFFF29AACA282EF02F0F28A1200000E66
:10051000035CD8B4D9EC02F0010E035CD8B4DEEC75
:1005200002F0020E035CD8B4E3EC02F0030E035CAD
:10053000D8B4E8EC02F0040E035CD8B4EDEC02F0A1
:10054000050E035CD8B4F2EC02F0060E035CD8B4DE
:10055000F7EC02F0070E035CD8B4FCEC02F01200DA
:10056000430E025CD8B4D9EC02F0440E025CD8B45D
:10057000DEEC02F0450E025CD8B4E3EC02F0460E6D
:10058000025CD8B4E8EC02F0470E025CD8B4EDECA3
:1005900002F0410E025CD8B4F2EC02F0420E025CB2
:1005A000D8B4F7EC02F0630E025CD8B4FCEC02F0B5
:1005B0001200430E0E6E000E036E1200440E0E6EFD
:1005C000010E036E1200450E0E6E020E036E120037
:1005D000460E0E6E030E036E1200470E0E6E040ED4
:1005E000036E1200410E0E6E050E036E1200420ED7
:1005F0000E6E060E036E1200630E0E6E070E036E75
:020600001200E6
:020000040030CA
:0100010008F6
:010003001EDE
:010005008179
:00000001FF
